:100000000C942A000C943D0D0C9447000C9447006E
:100010000C9447000C9447000C9447000C94470044
:100020000C9447000C9447000C9447000C94470034
:100030000C9447000C9447000C9447000C94470024
:100040000C945B140C9447000C9447000C944700EC
:100050000C94470011241FBECFE5D8E0DEBFCDBF12
:1000600011E0A0E6B0E0EEEBFBE502C005900D92DA
:10007000A03DB107D9F711E0A0EDB1E001C01D929C
:10008000A73FB107E1F70E94A51F0C94DD2D0C944A
:100090000000EF92FF920F931F937B018C0120E0F1
:1000A00030E040E05FE40E94490388238CF0C801FF
:1000B000B70120E030E040E05FE40E94C1010E940F
:1000C000A9039B01AC01205030404040504806C07D
:1000D000C801B7010E94A9039B01AC01B901CA0183
:1000E0001F910F91FF90EF900895A0E0B0E0EBE733
:1000F000F0E00C94A62DDC012B01FA019C919230CA
:1001000008F439C1EB018881823008F433C194309E
:1001100069F4843009F02FC111969C91119789815F
:10012000981709F428C1A7E9B1E025C1843009F482
:1001300021C18230A9F4923009F01DC19A01AD01AC
:1001400088E0EA010990AE01E90109929E0181501F
:10015000C1F7E201898111969C918923818308C1AD
:10016000923009F407C112962D903C901397EB0141
:100170008A819B811496AD90BD90CD90DC901797AD
:10018000EC80FD800E811F819101281B390BB90184
:1001900037FF04C066277727621B730B6032710537
:1001A0000CF061C0121613066CF537014801062EDB
:1001B00004C096948794779467940A94D2F721E0C8
:1001C00030E040E050E004C0220F331F441F551FB1
:1001D0006A95D2F721503040404050402E213F21B7
:1001E00040235123211531054105510521F021E01E
:1001F00030E040E050E079018A01E628F72808293C
:1002000019293CC0232BD1F1260E371E350146019A
:10021000062E04C096948794779467940A94D2F734
:1002200021E030E040E050E004C0220F331F441FC3
:10023000551F6A95D2F721503040404050402A2146
:100240003B214C215D21211531054105510521F04E
:1002500021E030E040E050E059016A01A628B728CB
:10026000C828D9280BC0821593052CF01C01AA249C
:10027000BB24650103C0EE24FF24870111969C91E5
:10028000D20111968C91981709F445C0992339F041
:10029000A80197012A193B094C095D0906C0A6016E
:1002A00095012E193F09400B510B57FD08C01182D3
:1002B0003382228224833583468357831DC081E0A5
:1002C00081833382228288279927DC01821B930B4A
:1002D000A40BB50B84839583A683B7830DC0220F2F
:1002E000331F441F551F24833583468357838281E0
:1002F000938101979383828324813581468157813D
:10030000DA01C9010197A109B1098F5F9F4FAF4F72
:10031000BF4328F30BC0918333822282EA0CFB1C7B
:100320000C1D1D1DE482F5820683178383E0808304
:10033000248135814681578157FF1AC0C901AA27F8
:1003400097FDA095BA2F81709070A070B0705695EF
:10035000479537952795822B932BA42BB52B848318
:100360009583A683B7838281938101969383828349
:10037000DF0101C0D201CD01CDB7DEB7E2E10C94BF
:10038000C22DA0E2B0E0E7ECF1E00C94B22D69835D
:100390007A838B839C832D833E834F835887E9E048
:1003A000EE2EF12CEC0EFD1ECE010196B7010E943F
:1003B000D2048E010F5E1F4FCE010596B8010E9438
:1003C000D2048A8991E089278A8BC701B801AE01DE
:1003D000475E5F4F0E9475000E94FD03A096E6E015
:1003E0000C94CE2DA0E2B0E0E8EFF1E00C94B22D39
:1003F00069837A838B839C832D833E834F835887C5
:10040000F9E0EF2EF12CEC0EFD1ECE010196B701A6
:100410000E94D2048E010F5E1F4FCE010596B801D7
:100420000E94D204C701B801AE01475E5F4F0E942F
:1004300075000E94FD03A096E6E00C94CE2DA0E28C
:10044000B0E0E5E2F2E00C94A62D69837A838B8319
:100450009C832D833E834F835887CE010196BE0136
:10046000675F7F4F0E94D204CE010596BE016F5E8A
:100470007F4F0E94D2049985923088F0898982301A
:10048000C8F0943019F4823051F404C0843029F457
:10049000923081F487E991E0C6C0923049F420E0BF
:1004A0009A858A89981321E02A87CE010996BBC0D4
:1004B000823049F420E09A858A89981321E02A8BBA
:1004C000CE014196B0C02D843E844F8458886D88FB
:1004D0007E888F88988CEE24FF248701AA24BB2471
:1004E000650140E050E060E070E0E0E0F0E0C10174
:1004F00081709070892BE9F0E60CF71C081D191D1E
:100500009A01AB012A0D3B1D4C1D5D1D80E090E062
:10051000A0E0B0E0E614F7040805190520F481E036
:1005200090E0A0E0B0E0BA01A901480F591F6A1F8E
:100530007B1FAA0CBB1CCC1CDD1C97FE08C081E0F5
:1005400090E0A0E0B0E0A82AB92ACA2ADB2A3196B6
:10055000E032F10549F0660C771C881C991C569412
:10056000479437942794C3CFFA85EA892B893C892D
:100570008B859C85280F391F2E5F3F4F17C0CA01FE
:1005800081709070892B61F016950795F794E79428
:1005900080E090E0A0E0B0E8E82AF92A0A2B1B2BC3
:1005A00076956795579547952F5F3F4F77FDE7CF36
:1005B0000CC0440F551F661F771F17FD4160EE0CDE
:1005C000FF1C001F111F21503040403090E05907A0
:1005D00090E0690790E4790760F32B8F3C8FDB0193
:1005E000CA018F779070A070B07080349105A1051A
:1005F000B10561F447FD0AC0E114F10401051105DC
:1006000029F0405C5F4F6F4F7F4F40781A8EFE1786
:1006100011F081E08A8F4D8F5E8F6F8F78A383E01A
:10062000898FCE0149960E94FD03A096E2E10C94C9
:10063000C22DA8E1B0E0EFE1F3E00C94B22D6983A4
:100640007A838B839C832D833E834F83588789E0F5
:10065000E82EF12CEC0EFD1ECE010196B7010E9492
:10066000D2048E010F5E1F4FCE010596B8010E9485
:10067000D2048985823040F08989823028F0C70110
:10068000B8010E944A0501C08FEF6896E6E00C941D
:10069000CE2DA8E1B0E0EFE4F3E00C94B22D698335
:1006A0007A838B839C832D833E834F83588789E095
:1006B000E82EF12CEC0EFD1ECE010196B7010E9432
:1006C000D2048E010F5E1F4FCE010596B8010E9425
:1006D000D2048985823040F08989823028F0C701B0
:1006E000B8010E944A0501C08FEF6896E6E00C94BD
:1006F000CE2DA8E1B0E0EFE7F3E00C94B22D6983D2
:100700007A838B839C832D833E834F83588789E034
:10071000E82EF12CEC0EFD1ECE010196B7010E94D1
:10072000D2048E010F5E1F4FCE010596B8010E94C4
:10073000D2048985823040F08989823028F0C7014F
:10074000B8010E944A0501C081E06896E6E00C9479
:10075000CE2DACE0B0E0EFEAF3E00C94B62D698367
:100760007A838B839C83CE010196BE016B5F7F4FA2
:100770000E94D2048D81823061F1823050F1843048
:1007800021F48E81882351F12EC02F81388537FDC9
:1007900020C06E812F3131051CF06623F9F023C093
:1007A0008EE190E0821B930B29853A854B855C8511
:1007B00004C056954795379527958A95D2F76623B5
:1007C000B1F050954095309521953F4F4F4F5F4F79
:1007D0000EC020E030E040E050E009C02FEF3FEFD6
:1007E0004FEF5FE704C020E030E040E050E8B9019F
:1007F000CA012C96E2E00C94D22DDF92EF92FF9288
:100800000F931F93FC01E480F58006811781D1804E
:100810008081823048F480E090E0A0E1B0E0E82AF6
:10082000F92A0A2B1B2BA5C0843009F49FC0823003
:1008300021F4EE24FF24870105C0E114F104010531
:10084000110519F4E0E0F0E096C0628173819FEF3A
:10085000623879070CF05BC022E83FEF261B370BAC
:100860002A3131052CF020E030E040E050E02AC091
:10087000B801A701022E04C0769567955795479554
:100880000A94D2F781E090E0A0E0B0E004C0880FC5
:10089000991FAA1FBB1F2A95D2F70197A109B10979
:1008A0008E219F21A023B1230097A105B10521F03E
:1008B00081E090E0A0E0B0E09A01AB01282B392B59
:1008C0004A2B5B2BDA01C9018F779070A070B07052
:1008D00080349105A105B10539F427FF09C0205CDA
:1008E0003F4F4F4F5F4F04C0215C3F4F4F4F5F4F13
:1008F000E0E0F0E02030A0E03A07A0E04A07A0E402
:100900005A0710F0E1E0F0E079018A0127C0603871
:10091000710564F5FB01E158FF4FD801C7018F77DE
:100920009070A070B07080349105A105B10539F4C4
:10093000E7FE0DC080E490E0A0E0B0E004C08FE3EB
:1009400090E0A0E0B0E0E80EF91E0A1F1B1F17FFA1
:1009500005C016950795F794E794319687E01695AC
:100960000795F794E7948A95D1F705C0EE24FF2404
:100970008701EFEFF0E06E2F679566276795902F60
:100980009F77D794DD24D7948E2F8695492F462BB9
:10099000582F5D29B701CA011F910F91FF90EF9069
:1009A000DF900895FC01DB01408151812281622F9B
:1009B0006F7770E0221F2227221F9381892F880FD3
:1009C000822B282F30E0991F9927991F11969C930D
:1009D000119721153105A9F54115510561057105DD
:1009E00011F482E037C082E89FEF13969C938E93B8
:1009F00012979A01AB0167E0220F331F441F551F66
:100A00006A95D1F783E08C930DC0220F331F441FEA
:100A1000551F12968D919C911397019713969C9355
:100A20008E931297203080E0380780E0480780E4FA
:100A3000580758F314962D933D934D935C93179755
:100A400008952F3F310579F4411551056105710570
:100A500019F484E08C93089564FF03C081E08C93C3
:100A600012C01C9210C02F57304013963C932E9307
:100A7000129783E08C9387E0440F551F661F771F02
:100A80008A95D1F7706414964D935D936D937C9322
:100A9000179708951F93DC01FB019C91923008F495
:100AA00047C08081823008F443C0943051F41196DD
:100AB0001C91843099F58181682F70E0611B710968
:100AC0003FC0843021F0923031F48230B9F181811D
:100AD000882389F12DC011961C9111978230F1F075
:100AE00081811817D9F412962D913C911397828128
:100AF00093818217930794F028173907BCF0149656
:100B00008D919D910D90BC91A02D248135814681C0
:100B10005781281739074A075B0718F4112341F05A
:100B20000AC082179307A407B50740F4112319F0F0
:100B300061E070E005C06FEF7FEF02C060E070E041
:100B4000CB011F910895DF93CF930F92CDB7DEB7FE
:100B50001982AAE2B0E0EAE2F0E0808188608C933A
:100B6000AAE2B0E0EAE2F0E0808180618C93A0E448
:100B7000B0E0E0E4F0E0808180688C93898182605D
:100B80008983898184608983AAE2B0E0EAE2F0E0A7
:100B900080818B7F8C9389818068898389818F7E16
:100BA000898389818F7D898389818068898389810F
:100BB000877F898389818068898389818F7B898305
:100BC000A0E4B0E0E0E4F0E080818F778C93E9E28C
:100BD000F0E083E38083E0E4F0E01082ABE2B0E099
:100BE000EBE2F0E080818D7F8C93E0E4F0E089819E
:100BF00080830F90CF91DF910895DF93CF9300D042
:100C0000CDB7DEB79A838983EBE2F0E080818295ED
:100C100086958770882F90E0817090700097A1F37F
:100C2000ECE2F0E089818083EBE2F0E08081829564
:100C3000869586958370882F90E0817090700097DC
:100C400099F3ABE2B0E0EBE2F0E0808180648C935A
:100C50000F900F90CF91DF910895DF93CF9300D045
:100C6000CDB7DEB79A838983EBE2F0E080818823F9
:100C7000DCF7ECE2F0E08081E981FA8180830F907B
:100C80000F90CF91DF910895DF93CF93CDB7DEB76B
:100C90002D970FB6F894DEBF0FBECDBF9D878C8712
:100CA00019821FC08981E82FFF27E7FDF0958C8509
:100CB0009D852AE030E0B9010E94922D282FCE01B7
:100CC0000296E80FF91F20838C859D852AE030E08D
:100CD000B9010E94922DCB019D878C8789818F5FFE
:100CE00089838C859D850097E9F689818150898368
:100CF00013C08981282F332727FD3095CE01029616
:100D0000FC01E20FF31F8081882F90E0C0960E94C3
:100D1000FD058981815089838981882354F72D9627
:100D20000FB6F894DEBF0FBECDBFCF91DF9108950F
:100D3000DF93CF9300D00F92CDB7DEB79B838A832A
:100D4000198210C08981282F30E08A819B81FC01A3
:100D5000E20FF31F8081882F90E00E94FD058981BA
:100D60008F5F89838981282F30E08A819B81FC01F4
:100D7000E20FF31F8081882329F70F900F900F90C7
:100D8000CF91DF910895DF93CF93CDB7DEB7A3E581
:100D9000B0E0E3E5F0E08081877B8C93A3E5B0E0F1
:100DA000E3E5F0E0808180648C93A3E5B0E0E3E5C7
:100DB000F0E080818F7C8C93A3E5B0E0E3E5F0E088
:100DC000808180638C93A3E5B0E0E3E5F0E080816F
:100DD000887F8C93A3E5B0E0E3E5F0E0808182605A
:100DE0008C93CF91DF910895DF93CF93CDB7DEB78A
:100DF000AEE4B0E0EEE4F0E08081887F8C93AEE476
:100E0000B0E0EEE4F0E0808182608C93AFE4B0E08B
:100E1000EFE4F0E080818C7F8C93AFE4B0E0EFE40E
:100E2000F0E0808182608C93AEE4B0E0EEE4F0E02C
:100E30008081877E8C93AEE4B0E0EEE4F0E08081C8
:100E400088618C93AFE4B0E0EFE4F0E080818068EB
:100E50008C93AFE4B0E0EFE4F0E080818F7B8C9383
:100E6000CF91DF910895DF93CF9300D0CDB7DEB758
:100E70009A838983ECE4F0E089819A81918380836D
:100E80000F900F90CF91DF910895DF93CF9300D013
:100E9000CDB7DEB79A838983EAE4F0E089819A814D
:100EA000918380830F900F90CF91DF910895DF930E
:100EB000CF9300D0CDB7DEB79A838983E8E4F0E022
:100EC00089819A81918380830F900F90CF91DF91D8
:100ED0000895DF93CF9300D0CDB7DEB79A8389838F
:100EE000E6E4F0E089819A81918380830F900F90EE
:100EF000CF91DF910895DF93CF930F92CDB7DEB7F7
:100F00008983E2E5F0E0898180830F90CF91DF91C2
:100F10000895DF93CF930F92CDB7DEB78983ECE5C9
:100F2000F0E0898180830F90CF91DF910895DF9366
:100F3000CF93CDB7DEB7ECE4F0E080819181CF9123
:100F4000DF910895DF93CF93CDB7DEB7E6E4F0E00D
:100F500080819181CF91DF910895DF93CF9300D06D
:100F600000D000D0CDB7DEB79E838D83A5E4B0E07E
:100F7000E5E4F0E08081877B8C93A5E4B0E0E5E4D4
:100F8000F0E0808188608C93A5E4B0E0E5E4F0E0D7
:100F90008081887F8C93A5E4B0E0E5E4F0E0808177
:100FA00083608C93ECE5F0E08DE78083E5E4F0E08E
:100FB00080818C83ECE5F0E080818B831A8219823A
:100FC00017C0E8E5F0E0808191818078907000970B
:100FD000C1F3A8E5B0E0E8E5F0E0808191818068A8
:100FE00011969C938E9389819A8101969A83898325
:100FF00029813A818D819E818217930710F7E5E45C
:10100000F0E08C818083ECE5F0E08B818083269694
:101010000FB6F894DEBF0FBECDBFCF91DF9108951C
:10102000DF93CF93CDB7DEB728970FB6F894DEBF26
:101030000FBECDBF89836A838981282F30E038872E
:101040002F838F819885009731F02F81388521304B
:10105000310501F13DC08A81282F30E03E832D8388
:101060008D819E81009731F02D813E8121303105A7
:1010700049F02EC0A9E5B0E0E9E5F0E080818160AB
:101080008C9326C0A9E5B0E0E9E5F0E080818E7F91
:101090008C931EC08A81282F30E03C832B838B8168
:1010A0009C81009731F02B813C812130310549F042
:1010B0000FC0A9E5B0E0E9E5F0E0808182608C93A3
:1010C00007C0A9E5B0E0E9E5F0E080818D7F8C9371
:1010D00028960FB6F894DEBF0FBECDBFCF91DF913B
:1010E0000895DF93CF93CDB7DEB761970FB6F8942D
:1010F000DEBF0FBECDBF89836A834B838981282FD2
:1011000030E0398B288B88899989009739F02889B4
:1011100039892130310509F44EC099C08A81282FC0
:1011200030E03F872E878E859F85009731F02E8592
:101130003F852130310501F18AC08B81282F30E0B5
:101140003D872C878C859D85009731F02C853D85CA
:101150002130310549F07BC0A9E5B0E0E9E5F0E0D8
:10116000808180648C9373C0A9E5B0E0E9E5F0E08C
:1011700080818F7B8C936BC08B81282F30E03B87E5
:101180002A878A859B85009731F02A853B85213007
:10119000310549F05CC0A9E5B0E0E9E5F0E0808107
:1011A00080618C9354C0A9E5B0E0E9E5F0E080816E
:1011B0008F7E8C934CC08A81282F30E03987288716
:1011C00088859985009731F028853985213031054A
:1011D00001F13DC08B81282F30E03F832E838E812B
:1011E0009F81009731F02E813F812130310549F0F8
:1011F0002EC0A9E5B0E0E9E5F0E0808180648C9341
:1012000026C0A9E5B0E0E9E5F0E080818F7B8C9312
:101210001EC08B81282F30E03D832C838C819D81E3
:10122000009731F02C813D812130310549F00FC00C
:10123000A9E5B0E0E9E5F0E0808180618C9307C02A
:10124000A9E5B0E0E9E5F0E080818F7E8C936196BE
:101250000FB6F894DEBF0FBECDBFCF91DF910895DA
:10126000DF93CF9300D00F92CDB7DEB7898389810A
:10127000282F30E03B832A838A819B81009731F0BD
:101280002A813B812130310549F00FC0A9E5B0E04A
:10129000E9E5F0E0808180628C9307C0A9E5B0E0C9
:1012A000E9E5F0E080818F7D8C930F900F900F9097
:1012B000CF91DF910895DF93CF9300D00F92CDB7F8
:1012C000DEB789838981282F30E03B832A838A8196
:1012D0009B81009731F02A813B812130310549F013
:1012E0000FC0AEE4B0E0EEE4F0E0808180648C9367
:1012F00007C0AEE4B0E0EEE4F0E080818F7B8C9339
:101300000F900F900F90CF91DF910895DF93CF93BF
:1013100000D0CDB7DEB79A83898389819A81909373
:10132000D2018093D1010F900F90CF91DF9108955A
:10133000DF93CF9300D0CDB7DEB79A8389838981BD
:101340009A819093D4018093D3010F900F90CF9105
:10135000DF910895DF93CF9300D0CDB7DEB79A83A6
:10136000898389819A819093D6018093D5010F90CA
:101370000F90CF91DF910895DF93CF9300D0CDB739
:10138000DEB79A83898389819A819093D80180936B
:10139000D7010F900F90CF91DF910895DF93CF93F6
:1013A00000D0CDB7DEB79A83898389819A819093E3
:1013B000DA018093D9010F900F90CF91DF910895BA
:1013C000DF93CF9300D0CDB7DEB79A83898389812D
:1013D0009A819093DC018093DB010F900F90CF9165
:1013E000DF9108951F920F920FB60F9211242F9341
:1013F0003F934F935F936F937F938F939F93AF939D
:10140000BF93EF93FF93DF93CF93CDB7DEB7809178
:10141000DB019091DC01009729F0E091DB01F09174
:10142000DC010995CF91DF91FF91EF91BF91AF91D1
:101430009F918F917F916F915F914F913F912F91EC
:101440000F900FBE0F901F9018951F920F920FB61E
:101450000F9211242F933F934F935F936F937F933A
:101460008F939F93AF93BF93EF93FF93DF93CF93AC
:10147000CDB7DEB78091D7019091D801009729F0C0
:10148000E091D701F091D8010995CF91DF91FF91BB
:10149000EF91BF91AF919F918F917F916F915F91EC
:1014A0004F913F912F910F900FBE0F901F90189565
:1014B0001F920F920FB60F9211242F933F934F93C9
:1014C0005F936F937F938F939F93AF93BF93EF93AC
:1014D000FF93DF93CF93CDB7DEB78091D901909181
:1014E000DA01009729F0E091D901F091DA0109952C
:1014F000CF91DF91FF91EF91BF91AF919F918F912C
:101500007F916F915F914F913F912F910F900FBEFF
:101510000F901F9018951F920F920FB60F921124E3
:101520002F933F934F935F936F937F938F939F93EB
:10153000AF93BF93EF93FF93DF93CF93CDB7DEB716
:101540008091D5019091D601009729F0E091D501C5
:10155000F091D6010995CF91DF91FF91EF91BF9165
:10156000AF919F918F917F916F915F914F913F913B
:101570002F910F900FBE0F901F9018951F920F92F2
:101580000FB60F9211242F933F934F935F936F9356
:101590007F938F939F93AF93BF93EF93FF93DF93CB
:1015A000CF93CDB7DEB78091D3019091D40100974E
:1015B00029F0E091D301F091D4010995CF91DF9109
:1015C000FF91EF91BF91AF919F918F917F916F911B
:1015D0005F914F913F912F910F900FBE0F901F90F1
:1015E00018951F920F920FB60F9211242F933F93CD
:1015F0004F935F936F937F938F939F93AF93BF931B
:10160000EF93FF93DF93CF93CDB7DEB78091D101F6
:101610009091D201009729F0E091D101F091D2018F
:101620000995CF91DF91FF91EF91BF91AF919F917C
:101630008F917F916F915F914F913F912F910F907B
:101640000FBE0F901F901895DF93CF93CDB7DEB7E5
:10165000AFE5B0E0EFE5F0E0808180688C93CF915A
:10166000DF910895DF93CF93CDB7DEB7AFE5B0E05C
:10167000EFE5F0E080818F778C93CF91DF91089533
:10168000DF93CF93CDB7DEB7ABE5B0E0EBE5F0E0AD
:10169000808180648C93A5E5B0E0E5E5F0E0808191
:1016A00081608C93A5E5B0E0E5E5F0E080818260A3
:1016B0008C93ABE5B0E0EBE5F0E080818F7B8C9321
:1016C000ABE5B0E0EBE5F0E080818F7B8C93CF91D0
:1016D000DF910895DF93CF93CDB7DEB72A970FB68A
:1016E000F894DEBF0FBECDBF89836A838981282F1E
:1016F00030E03A87298789859A858130910509F4F8
:1017000065C029853A852330310509F4B9C089853A
:101710009A85009709F0D3C08A81282F30E0388756
:101720002F838F8198858230910529F12F8138850B
:101730002330310534F48F8198858130910561F033
:10174000BEC02F8138852330310519F18F819885EE
:101750008430910561F1B3C0A5E5B0E0E5E5F0E0C6
:10176000808181608C93A5E5B0E0E5E5F0E08081C3
:1017700082608C93A4C0A5E5B0E0E5E5F0E080814F
:101780008E7F8C93A5E5B0E0E5E5F0E08081826096
:101790008C93A5E5B0E0E5E5F0E0808181608C9375
:1017A000A5E5B0E0E5E5F0E080818D7F8C93A5E5CF
:1017B000B0E0E5E5F0E080818E7F8C93A5E5B0E0B8
:1017C000E5E5F0E080818D7F8C9379C08A81282FB8
:1017D00030E03E832D838D819E818230910529F1F9
:1017E0002D813E812330310534F48D819E818130FD
:1017F000910561F064C02D813E812330310519F1DE
:101800008D819E818430910561F159C0A5E5B0E0DC
:10181000E5E5F0E0808184608C93A5E5B0E0E5E546
:10182000F0E0808188608C934AC0A5E5B0E0E5E5F2
:10183000F0E080818B7F8C93A5E5B0E0E5E5F0E0FA
:10184000808188608C93A5E5B0E0E5E5F0E08081DB
:1018500084608C93A5E5B0E0E5E5F0E08081877FCA
:101860008C93A5E5B0E0E5E5F0E080818B7F8C937B
:10187000A5E5B0E0E5E5F0E08081877F8C931FC0AF
:101880008A81282F30E03C832B838B819C8181309F
:10189000910531F02B813C812230310549F00FC098
:1018A000A4E5B0E0E4E5F0E0808180648C9307C0BB
:1018B000A5E5B0E0E5E5F0E080818F7B8C932A968A
:1018C0000FB6F894DEBF0FBECDBFCF91DF91089564
:1018D000DF93CF93CDB7DEB72A970FB6F894DEBF6C
:1018E0000FBECDBF89836A838981282F30E03A8774
:1018F000298789859A858130910551F129853A8515
:101900002330310509F443C089859A85009709F091
:101910005CC08A81282F30E038872F838F8198859B
:10192000009731F02F8138852130310549F04DC0C5
:10193000ABE5B0E0EBE5F0E0808180648C9345C0DE
:10194000ABE5B0E0EBE5F0E080818F7B8C933DC0B0
:101950008A81282F30E03E832D838D819E810097E0
:1019600031F02D813E812130310549F02EC0ABE5AB
:10197000B0E0EBE5F0E0808180688C9326C0ABE5B9
:10198000B0E0EBE5F0E080818F778C931EC08A8118
:10199000282F30E03C832B838B819C81009731F092
:1019A0002B813C812130310549F00FC0ABE5B0E01F
:1019B000EBE5F0E0808180628C9307C0ABE5B0E09E
:1019C000EBE5F0E080818F7D8C932A960FB6F8943A
:1019D000DEBF0FBECDBFCF91DF910895DF93CF93D0
:1019E00000D000D0CDB7DEB78A8319828A81282F34
:1019F00030E03C832B838B819C818130910599F071
:101A00002B813C8123303105B1F08B819C81009783
:101A1000D1F4EAE5F0E08081829586958695837021
:101A20008170898310C0EAE5F0E08081881F8827F3
:101A3000881F898308C0EAE5F0E080818295869559
:101A400087708170898389810F900F900F900F901C
:101A5000CF91DF910895DF93CF9300D0CDB7DEB75C
:101A60009A83898389819A819093DE018093DD0135
:101A70000F900F90CF91DF9108951F920F920FB6A4
:101A80000F9211242F933F934F935F936F937F9304
:101A90008F939F93AF93BF93EF93FF93DF93CF9376
:101AA000CDB7DEB78091DD019091DE01009729F07E
:101AB000E091DD01F091DE010995CF91DF91FF9179
:101AC000EF91BF91AF919F918F917F916F915F91B6
:101AD0004F913F912F910F900FBE0F901F9018952F
:101AE000DF93CF9300D000D00F92CDB7DEB78983BC
:101AF0006A834B838981843008F0E8C08A8188300A
:101B000008F0E4C08B81823008F0E0C08981282F82
:101B100030E03D832C838C819D818130910509F4D7
:101B200047C02C813D81223031052CF48C819D8170
:101B3000009771F0CBC02C813D812230310509F432
:101B400067C08C819D818330910509F491C0BEC02E
:101B50008B818130A1F4AAE3B0E0EAE3F0E0808178
:101B6000482F8A81282F30E081E090E0022E02C0C9
:101B7000880F991F0A94E2F7842B8C93A7C08B815E
:101B8000882309F0A3C0AAE3B0E0EAE3F0E0808193
:101B9000482F8A81282F30E081E090E0022E02C099
:101BA000880F991F0A94E2F7809584238C938EC046
:101BB0008B818130A1F4A7E3B0E0E7E3F0E080811E
:101BC000482F8A81282F30E081E090E0022E02C069
:101BD000880F991F0A94E2F7842B8C9377C08B812E
:101BE000882309F073C0A7E3B0E0E7E3F0E0808169
:101BF000482F8A81282F30E081E090E0022E02C039
:101C0000880F991F0A94E2F7809584238C935EC015
:101C10008B818130A1F4A4E3B0E0E4E3F0E08081C3
:101C2000482F8A81282F30E081E090E0022E02C008
:101C3000880F991F0A94E2F7842B8C9347C08B81FD
:101C4000882309F043C0A4E3B0E0E4E3F0E080813E
:101C5000482F8A81282F30E081E090E0022E02C0D8
:101C6000880F991F0A94E2F7809584238C932EC0E5
:101C70008B818130A1F4A1E3B0E0E1E3F0E0808169
:101C8000482F8A81282F30E081E090E0022E02C0A8
:101C9000880F991F0A94E2F7842B8C9317C08B81CD
:101CA0008823A1F4A1E3B0E0E1E3F0E08081482FD4
:101CB0008A81282F30E081E090E0022E02C0880F58
:101CC000991F0A94E2F7809584238C930F900F90CC
:101CD0000F900F900F90CF91DF910895DF93CF93E6
:101CE00000D000D00F92CDB7DEB789836A834B83D3
:101CF0008981843008F0E8C08A81883008F0E4C027
:101D00008B81823008F0E0C08981282F30E03D834C
:101D10002C838C819D818130910509F447C02C81F1
:101D20003D81223031052CF48C819D81009771F02A
:101D3000CBC02C813D812230310509F467C08C81F4
:101D40009D818330910509F491C0BEC08B818130A3
:101D5000A1F4ABE3B0E0EBE3F0E08081482F8A81AF
:101D6000282F30E081E090E0022E02C0880F991FFA
:101D70000A94E2F7842B8C93A7C08B81882309F007
:101D8000A3C0ABE3B0E0EBE3F0E08081482F8A81B1
:101D9000282F30E081E090E0022E02C0880F991FCA
:101DA0000A94E2F7809584238C938EC08B818130D6
:101DB000A1F4A8E3B0E0E8E3F0E08081482F8A8155
:101DC000282F30E081E090E0022E02C0880F991F9A
:101DD0000A94E2F7842B8C9377C08B81882309F0D7
:101DE00073C0A8E3B0E0E8E3F0E08081482F8A8187
:101DF000282F30E081E090E0022E02C0880F991F6A
:101E00000A94E2F7809584238C935EC08B818130A5
:101E1000A1F4A5E3B0E0E5E3F0E08081482F8A81FA
:101E2000282F30E081E090E0022E02C0880F991F39
:101E30000A94E2F7842B8C9347C08B81882309F0A6
:101E400043C0A5E3B0E0E5E3F0E08081482F8A815C
:101E5000282F30E081E090E0022E02C0880F991F09
:101E60000A94E2F7809584238C932EC08B81813075
:101E7000A1F4A2E3B0E0E2E3F0E08081482F8A81A0
:101E8000282F30E081E090E0022E02C0880F991FD9
:101E90000A94E2F7842B8C9317C08B818823A1F4DA
:101EA000A2E3B0E0E2E3F0E08081482F8A81282FAE
:101EB00030E081E090E0022E02C0880F991F0A9462
:101EC000E2F7809584238C930F900F900F900F90E2
:101ED0000F90CF91DF910895DF93CF93CDB7DEB709
:101EE0002D970FB6F894DEBF0FBECDBF89836A83EE
:101EF0004B838981843008F054C18A81883008F08E
:101F000050C18B81823008F04CC18981282F30E08C
:101F10003D872C878C859D858130910509F462C0B1
:101F20002C853D85223031052CF48C859D850097CC
:101F300071F037C12C853D852230310509F49DC0F3
:101F40008C859D858330910509F4E2C02AC18B817F
:101F5000282F30E03B872A878A859B85009769F187
:101F60002A853B852130310509F01BC1AAE3B0E089
:101F7000EAE3F0E08081482F8A81282F30E081E079
:101F800090E002C0880F991F2A95E2F7809584237C
:101F90008C93ABE3B0E0EBE3F0E08081482F8A81E3
:101FA000282F30E081E090E0022E02C0880F991FB8
:101FB0000A94E2F7842B8C93F4C0ABE3B0E0EBE33C
:101FC000F0E08081482F8A81282F30E081E090E086
:101FD000022E02C0880F991F0A94E2F7809584238D
:101FE0008C93DFC08B81282F30E039872887888544
:101FF0009985009769F1288539852130310509F0E7
:10200000D0C0A7E3B0E0E7E3F0E08081482F8A8109
:10201000282F30E081E090E002C0880F991F2A95B8
:10202000E2F7809584238C93A8E3B0E0E8E3F0E046
:102030008081482F8A81282F30E081E090E0022EB5
:1020400002C0880F991F0A94E2F7842B8C93A9C0D1
:10205000A8E3B0E0E8E3F0E08081482F8A81282FF0
:1020600030E081E090E0022E02C0880F991F0A94B0
:10207000E2F7809584238C9394C08B81282F30E0E5
:102080003F832E838E819F81009769F12E813F814E
:102090002130310509F085C0A4E3B0E0E4E3F0E0CD
:1020A0008081482F8A81282F30E081E090E002C0B3
:1020B000880F991F2A95E2F7809584238C93A5E3D6
:1020C000B0E0E5E3F0E08081482F8A81282F30E0FE
:1020D00081E090E0022E02C0880F991F0A94E2F777
:1020E000842B8C935EC0A5E3B0E0E5E3F0E0808153
:1020F000482F8A81282F30E081E090E0022E02C034
:10210000880F991F0A94E2F7809584238C9349C025
:102110008B81282F30E03D832C838C819D8100971B
:1021200061F12C813D8121303105D9F5A1E3B0E089
:10213000E1E3F0E08081482F8A81282F30E081E0C0
:1021400090E002C0880F991F2A95E2F780958423BA
:102150008C93A2E3B0E0E2E3F0E08081482F8A8133
:10216000282F30E081E090E0022E02C0880F991FF6
:102170000A94E2F7842B8C9314C0A2E3B0E0E2E36C
:10218000F0E08081482F8A81282F30E081E090E0C4
:10219000022E02C0880F991F0A94E2F780958423CB
:1021A0008C932D960FB6F894DEBF0FBECDBFCF91A6
:1021B000DF910895DF93CF9300D000D00F92CDB779
:1021C000DEB78A836B8319828A81843008F06BC002
:1021D0008B81883008F067C08A81282F30E03D83EA
:1021E0002C834C815D814130510541F18C819D8171
:1021F0008230910534F42C813D812115310561F047
:1022000052C04C815D814230510551F18C819D81DC
:1022100083309105B9F147C0E9E3F0E08081282FD0
:1022200030E08B81882F90E0A90102C05595479539
:102230008A95E2F7CA018170898335C0E6E3F0E050
:102240008081282F30E08B81882F90E0A90102C087
:10225000559547958A95E2F7CA018170898323C015
:10226000E3E3F0E08081282F30E08B81882F90E03D
:10227000A90102C0559547958A95E2F7CA01817078
:10228000898311C0E0E3F0E08081282F30E08B816A
:10229000882F90E0A90102C0559547958A95E2F7ED
:1022A000CA018170898389810F900F900F900F90E0
:1022B0000F90CF91DF910895DF93CF9300D000D09E
:1022C000CDB7DEB789836A838981843090F58981AF
:1022D000282F30E03C832B838B819C8181309105BA
:1022E000D1F02B813C81223031052CF48B819C81F3
:1022F000009761F01EC02B813C812230310581F0B6
:102300008B819C818330910581F013C0EAE3F0E07A
:102310008A8180830EC0E7E3F0E08A81808309C070
:10232000E4E3F0E08A81808304C0E1E3F0E08A81A5
:1023300080830F900F900F900F90CF91DF910895B1
:10234000DF93CF9300D000D0CDB7DEB789836A8307
:102350008981843090F58981282F30E03C832B835C
:102360008B819C8181309105D1F02B813C81223081
:1023700031052CF48B819C81009761F01EC02B816C
:102380003C812230310581F08B819C818330910525
:1023900081F013C0EBE3F0E08A8180830EC0E8E3B4
:1023A000F0E08A81808309C0E5E3F0E08A818083E0
:1023B00004C0E2E3F0E08A8180830F900F900F90D9
:1023C0000F90CF91DF910895DF93CF9300D000D08D
:1023D000CDB7DEB789836A838981843008F05EC017
:1023E0008A81823008F05AC08981282F30E03C83EE
:1023F0002B838B819C818130910521F12B813C8144
:10240000223031052CF48B819C81009761F046C00D
:102410002B813C812230310521F18B819C818330DD
:10242000910571F13BC08A81813029F4EAE3F0E043
:102430008FEF808333C08A81882381F5EAE3F0E05F
:1024400010822CC08A81813029F4E7E3F0E08FEF1D
:10245000808324C08A81882309F5E7E3F0E01082B5
:102460001DC08A81813029F4E4E3F0E08FEF80839E
:1024700015C08A81882391F4E4E3F0E010820EC055
:102480008A81813029F4E1E3F0E08FEF808306C098
:102490008A81882319F4E1E3F0E010820F900F9015
:1024A0000F900F90CF91DF910895DF93CF9300D0DD
:1024B00000D0CDB7DEB789836A838981843008F084
:1024C0005EC08A81823008F05AC08981282F30E0AE
:1024D0003C832B838B819C818130910521F12B8161
:1024E0003C81223031052CF48B819C81009761F076
:1024F00046C02B813C812230310521F18B819C81AA
:102500008330910571F13BC08A81813029F4EBE37E
:10251000F0E08FEF808333C08A81882381F5EBE37D
:10252000F0E010822CC08A81813029F4E8E3F0E0E9
:102530008FEF808324C08A81882309F5E8E3F0E0E7
:1025400010821DC08A81813029F4E5E3F0E08FEF2D
:10255000808315C08A81882391F4E5E3F0E010823E
:102560000EC08A81813029F4E2E3F0E08FEF8083AE
:1025700006C08A81882319F4E2E3F0E010820F900C
:102580000F900F900F90CF91DF910895DF93CF932D
:1025900000D000D0CDB7DEB78A8319828A8184301B
:1025A00008F03EC08A81282F30E03C832B838B814A
:1025B0009C8181309105E9F02B813C8122303105ED
:1025C0002CF48B819C81009761F02AC02B813C8187
:1025D00022303105B1F08B819C8183309105C9F0A7
:1025E0001FC0E9E3F0E080818F3FD1F48FEF898352
:1025F00017C0E6E3F0E080818F3F91F48FEF89838D
:102600000FC0E3E3F0E080818F3F51F48FEF8983C7
:1026100007C0E0E3F0E080818F3F11F48FEF898302
:1026200089810F900F900F900F90CF91DF910895B7
:10263000DF93CF9300D00F92CDB7DEB78983898126
:10264000843008F03EC08981282F30E03B832A8304
:102650008A819B8181309105E9F02A813B8122307A
:1026600031052CF48A819B81009761F02AC02A8170
:102670003B8122303105B1F08A819B818330910505
:10268000C9F01FC0EAE3F0E01082EBE3F0E08FEF67
:10269000808317C0E7E3F0E01082E8E3F0E08FEF1B
:1026A00080830FC0E4E3F0E01082E5E3F0E08FEF19
:1026B000808307C0E1E3F0E01082E2E3F0E08FEF17
:1026C00080830F900F900F90CF91DF910895DF934B
:1026D000CF93CDB7DEB7A6E2B0E0E6E2F0E08081CE
:1026E000887F8C93A6E2B0E0E6E2F0E0808186602D
:1026F0008C93A7E2B0E0E7E2F0E0808180628C9307
:10270000A7E2B0E0E7E2F0E08081807E8C93A7E270
:10271000B0E0E7E2F0E080818C93A6E2B0E0E6E290
:10272000F0E080818F7D8C93A6E2B0E0E6E2F0E0FD
:1027300080818F738C93A6E2B0E0E6E2F0E08081C6
:102740008C93A6E2B0E0E6E2F0E0808180688C93B2
:10275000CF91DF910895DF93CF930F92CDB7DEB77E
:102760008983A7E2B0E0E7E2F0E08081807E8C938D
:10277000A7E2B0E0E7E2F0E090818981892B8C93B9
:10278000A6E2B0E0E6E2F0E0808180648C93E6E2CD
:10279000F0E0808182958F70882F90E0817090703A
:1027A0000097A9F3A6E2B0E0E6E2F0E08081806164
:1027B0008C93E5E2F0E080810F90CF91DF91089556
:1027C0000F931F93DF93CF93CDB7DEB72E970FB63E
:1027D000F894DEBF0FBECDBF9E838D8378876F8355
:1027E0005A8749873C872B871E870D871C821B824F
:1027F0001A8219822D813E818F819885A901481BFB
:10280000590B29853A858B859C85281B390BCA0174
:10281000B9010E94922DCB019C838B832B813C813B
:102820008D859E85AC01249FC001259F900D349F0E
:10283000900D11249A83898389819A812E960FB6EF
:10284000F894DEBF0FBECDBFCF91DF911F910F91E6
:102850000895DF93CF9300D00F92CDB7DEB7898371
:102860007B836A838A819B819093E0018093DF015F
:10287000A7E2B0E0E7E2F0E08081807E8C93A7E2FF
:10288000B0E0E7E2F0E090818981892B8C93A6E2A9
:10289000B0E0E6E2F0E0808188608C93A6E2B0E0F0
:1028A000E6E2F0E0808180648C930F900F900F90AF
:1028B000CF91DF9108951F920F920FB60F921124BE
:1028C0002F933F934F935F936F937F938F939F9338
:1028D000AF93BF93EF93FF93DF93CF93CDB7DEB763
:1028E0008091DF019091E001009761F0E5E2F0E076
:1028F00080818093E101E091DF01F091E00181EEC0
:1029000091E00995CF91DF91FF91EF91BF91AF9148
:102910009F918F917F916F915F914F913F912F91F7
:102920000F900FBE0F901F901895DF93CF9300D09C
:1029300000D00F92CDB7DEB789836A834B8389813C
:10294000843090F58A818A3078F58B81823060F509
:102950008981882F90E0009739F58B81282F30E00E
:102960003D832C838C819D81009731F02C813D81AA
:102970002130310561F018C08A81882F90E0FC0178
:10298000E156FE4F908180E0692F0E94A0118A815C
:10299000882F90E0FC01E156FE4F8081982F9095A2
:1029A00080E0692F0E94A0110F900F900F900F9060
:1029B0000F90CF91DF910895DF93CF93CDB7DEB71E
:1029C00080E06FE00E945C11CF91DF910895DF936A
:1029D000CF93CDB7DEB7AE970FB6F894DEBF0FBE7C
:1029E000CDBF9EA78DA78091E201282F30E08DA555
:1029F0009EA5B9010E94922DCB019093E401809392
:102A0000E3011CA61BA61CA61BA6ABC180E060E0D0
:102A100041E00E946E0E80E061E040E00E946E0E98
:102A200080E062E040E00E946E0E80E063E040E003
:102A30000E946E0E80E090E0A0E2B1E48FA398A720
:102A4000A9A7BAA76FA178A589A59AA520E030E02B
:102A50004AEF54E40E941F02DC01CB018BA39CA32C
:102A6000ADA3BEA36BA17CA18DA19EA120E030E00F
:102A700040E85FE30E94790388232CF481E090E032
:102A80009AA389A33FC06BA17CA18DA19EA120E048
:102A90003FEF4FE757E40E94190318164CF56FA15A
:102AA00078A589A59AA520E030E040E251E40E9493
:102AB0001F02DC01CB01BC01CD010E944900DC01F9
:102AC000CB019AA389A30FC088EC90E098A38F8FC5
:102AD0008F8D98A10197F1F798A38F8F89A19AA163
:102AE00001979AA389A389A19AA1009769F714C0B5
:102AF0006BA17CA18DA19EA10E944900DC01CB01AC
:102B00009AA389A389A19AA19E8F8D8F8D8D9E8D69
:102B10000197F1F79E8F8D8F80E060E040E00E948A
:102B20006E0E80E061E041E00E946E0E80E062E0A7
:102B300040E00E946E0E80E063E040E00E946E0E76
:102B400080E090E0A0E2B1E4898F9A8FAB8FBC8FD8
:102B5000698D7A8D8B8D9C8D20E030E04AEF54E4B6
:102B60000E941F02DC01CB018D8B9E8BAF8BB88F37
:102B70006D897E898F89988D20E030E040E85FE3A1
:102B80000E94790388232CF481E090E09C8B8B8B4E
:102B90003FC06D897E898F89988D20E03FEF4FE798
:102BA00057E40E94190318164CF5698D7A8D8B8DA8
:102BB0009C8D20E030E040E251E40E941F02DC01E5
:102BC000CB01BC01CD010E944900DC01CB019C8BF3
:102BD0008B8B0FC088EC90E09A8B898B89899A89BE
:102BE0000197F1F79A8B898B8B899C8901979C8B34
:102BF0008B8B8B899C89009769F714C06D897E89BE
:102C00008F89988D0E944900DC01CB019C8B8B8BB6
:102C10008B899C89988B8F878F8598890197F1F78D
:102C2000988B8F8780E060E040E00E946E0E80E02D
:102C300061E040E00E946E0E80E062E041E00E94B0
:102C40006E0E80E063E040E00E946E0E80E090E057
:102C5000A0E2B1E48B879C87AD87BE876B857C85BE
:102C60008D859E8520E030E04AEF54E40E941F02EB
:102C7000DC01CB018F839887A987BA876F8178851C
:102C800089859A8520E030E040E85FE30E9479037F
:102C900088232CF481E090E09E838D833FC06F8178
:102CA000788589859A8520E03FEF4FE757E40E94B9
:102CB000190318164CF56B857C858D859E8520E063
:102CC00030E040E251E40E941F02DC01CB01BC0174
:102CD000CD010E944900DC01CB019E838D830FC092
:102CE00088EC90E09C838B838B819C810197F1F72A
:102CF0009C838B838D819E8101979E838D838D81A3
:102D00009E81009769F714C06F81788589859A85BF
:102D10000E944900DC01CB019E838D838D819E81C1
:102D20009A83898389819A810197F1F79A838983AC
:102D300080E060E040E00E946E0E80E061E040E0F4
:102D40000E946E0E80E062E040E00E946E0E80E025
:102D500063E041E00E946E0E8BA59CA501969CA7A6
:102D60008BA78091E3019091E4019C013695279512
:102D7000369527958BA59CA52817390708F046CED0
:102D8000AE960FB6F894DEBF0FBECDBFCF91DF91E8
:102D900008950F931F93DF93CF93CDB7DEB7C65639
:102DA000D0400FB6F894DEBF0FBECDBFFE01EB5989
:102DB000FF4F918380838091E201282F30E0FE0154
:102DC000EB59FF4F80819181B9010E94922DCB0177
:102DD0009093E4018093E301FE01ED59FF4F1182CE
:102DE0001082FE01ED59FF4F118210825FC480E016
:102DF00060E041E00E946E0E80E061E040E00E94F1
:102E00006E0E80E062E040E00E946E0E80E063E0C3
:102E100040E00E946E0EFE01E15AFF4F80E090E01C
:102E2000A0E2B1E480839183A283B3838E01055A2B
:102E30001F4FFE01E15AFF4F6081718182819381B2
:102E400020E030E04AEF54E40E941F02DC01CB0195
:102E5000F80180839183A283B383FE01E55AFF4F7B
:102E6000608171818281938120E030E040E85FE3FE
:102E70000E947903882344F4FE01E75AFF4F81E062
:102E800090E09183808364C0FE01E55AFF4F60812A
:102E900071818281938120E03FEF4FE757E40E94E8
:102EA000190318160CF043C0FE01E15AFF4F608170
:102EB00071818281938120E030E040E251E40E9400
:102EC0001F02DC01CB018E01075A1F4FBC01CD014F
:102ED0000E944900DC01CB01F801918380831FC06F
:102EE000FE01E95AFF4F88EC90E091838083FE0158
:102EF000E95AFF4F808191810197F1F7FE01E95A6C
:102F0000FF4F91838083DE01A75ABF4FFE01E75A2E
:102F1000FF4F80819181019711969C938E93FE01C2
:102F2000E75AFF4F808191810097D1F627C08E012B
:102F3000075A1F4FFE01E55AFF4F60817181828160
:102F400093810E944900DC01CB01F80191838083C9
:102F5000DE01AB5ABF4FFE01E75AFF4F80819181DE
:102F60008D939C93FE01EB5AFF4F808191810197D5
:102F7000F1F7FE01EB5AFF4F9183808380E060E020
:102F800041E00E946E0E80E061E041E00E946E0E22
:102F900080E062E040E00E946E0E80E063E040E08E
:102FA0000E946E0EFE01EF5AFF4F80E090E0A0E21B
:102FB000B1E480839183A283B3838E01035B1F4FAF
:102FC000FE01EF5AFF4F608171818281938120E081
:102FD00030E04AEF54E40E941F02DC01CB01F8010B
:102FE00080839183A283B383FE01E35BFF4F608103
:102FF00071818281938120E030E040E85FE30E94AC
:103000007903882344F4FE01E55BFF4F81E090E003
:103010009183808364C0FE01E35BFF4F6081718117
:103020008281938120E03FEF4FE757E40E9419032C
:1030300018160CF043C0FE01EF5AFF4F60817181FA
:103040008281938120E030E040E251E40E941F023F
:10305000DC01CB018E01055B1F4FBC01CD010E943D
:103060004900DC01CB01F801918380831FC0FE0180
:10307000E75BFF4F88EC90E091838083FE01E75B84
:10308000FF4F808191810197F1F7FE01E75BFF4FD0
:1030900091838083DE01A55BBF4FFE01E55BFF4F9F
:1030A00080819181019711969C938E93FE01E55B3F
:1030B000FF4F808191810097D1F627C08E01055B7B
:1030C0001F4FFE01E35BFF4F60817181828193811D
:1030D0000E944900DC01CB01F80191838083DE016D
:1030E000A95BBF4FFE01E55BFF4F808191818D930E
:1030F0009C93FE01E95BFF4F808191810197F1F77D
:10310000FE01E95BFF4F9183808380E060E040E057
:103110000E946E0E80E061E041E00E946E0E80E051
:1031200062E040E00E946E0E80E063E040E00E94BA
:103130006E0EFE01ED5BFF4F80E090E0A0E2B1E497
:1031400080839183A283B3838E01015C1F4FFE01B4
:10315000ED5BFF4F608171818281938120E030E0DF
:103160004AEF54E40E941F02DC01CB01F801808386
:103170009183A283B383FE01FF9660817181828176
:10318000938120E030E040E85FE30E9479038823E8
:103190002CF481E090E09EAF8DAF46C0FE01FF961B
:1031A000608171818281938120E03FEF4FE757E496
:1031B0000E941903181664F5FE01ED5BFF4F608154
:1031C00071818281938120E030E040E251E40E94ED
:1031D0001F02DC01CB01BC01CD010E944900DC01D2
:1031E000CB019EAF8DAF0FC088EC90E09CAF8BAF52
:1031F0008BAD9CAD0197F1F79CAF8BAF8DAD9EADC4
:1032000001979EAF8DAF8DAD9EAD009769F716C04B
:10321000FE01FF9660817181828193810E94490045
:10322000DC01CB019EAF8DAF8DAD9EAD9AAF89AF66
:1032300089AD9AAD0197F1F79AAF89AF80E060E070
:1032400040E00E946E0E80E061E041E00E946E0E60
:1032500080E062E041E00E946E0E80E063E040E0CA
:103260000E946E0E80E090E0A0E2B1E48DAB9EABD8
:10327000AFABB8AF6DA97EA98FA998AD20E030E0C3
:103280004AEF54E40E941F02DC01CB0189AB9AABE8
:10329000ABABBCAB69A97AA98BA99CA920E030E0B3
:1032A00040E85FE30E94790388232CF481E090E0FA
:1032B00098AB8FA73FC069A97AA98BA99CA920E0E8
:1032C0003FEF4FE757E40E94190318164CF56DA91C
:1032D0007EA98FA998AD20E030E040E251E40E9441
:1032E0001F02DC01CB01BC01CD010E944900DC01C1
:1032F000CB0198AB8FA70FC088EC90E09EA78DA75D
:103300008DA59EA50197F1F79EA78DA78FA598A9DA
:10331000019798AB8FA78FA598A9009769F714C05C
:1033200069A97AA98BA99CA90E944900DC01CB015B
:1033300098AB8FA78FA598A99CA78BA78BA59CA5B9
:103340000197F1F79CA78BA780E060E040E00E9426
:103350006E0E80E061E040E00E946E0E80E062E070
:1033600041E00E946E0E80E063E040E00E946E0E3D
:1033700080E090E0A0E2B1E48FA398A7A9A7BAA744
:103380006FA178A589A59AA520E030E04AEF54E422
:103390000E941F02DC01CB018BA39CA3ADA3BEA3A3
:1033A0006BA17CA18DA19EA120E030E040E85FE30D
:1033B0000E94790388232CF481E090E09AA389A3EA
:1033C0003FC06BA17CA18DA19EA120E03FEF4FE704
:1033D00057E40E94190318164CF56FA178A589A52A
:1033E0009AA520E030E040E251E40E941F02DC0197
:1033F000CB01BC01CD010E944900DC01CB019AA3A5
:1034000089A30FC088EC90E098A38F8F8F8D98A12F
:103410000197F1F798A38F8F89A19AA101979AA399
:1034200089A389A19AA1009769F714C06BA17CA117
:103430008DA19EA10E944900DC01CB019AA389A322
:1034400089A19AA19E8F8D8F8D8D9E8D0197F1F709
:103450009E8F8D8F80E060E040E00E946E0E80E0E5
:1034600061E040E00E946E0E80E062E041E00E9478
:103470006E0E80E063E041E00E946E0E80E090E01E
:10348000A0E2B1E4898F9A8FAB8FBC8F698D7A8D62
:103490008B8D9C8D20E030E04AEF54E40E941F02A7
:1034A000DC01CB018D8B9E8BAF8BB88F6D897E89B4
:1034B0008F89988D20E030E040E85FE30E94790337
:1034C00088232CF481E090E09C8B8B8B3FC06D892E
:1034D0007E898F89988D20E03FEF4FE757E40E9467
:1034E000190318164CF5698D7A8D8B8D9C8D20E013
:1034F00030E040E251E40E941F02DC01CB01BC013C
:10350000CD010E944900DC01CB019C8B8B8B0FC04D
:1035100088EC90E09A8B898B89899A890197F1F7D9
:103520009A8B898B8B899C8901979C8B8B8B8B8940
:103530009C89009769F714C06D897E898F89988D61
:103540000E944900DC01CB019C8B8B8B8B899C8971
:10355000988B8F878F8598890197F1F7988B8F8744
:1035600080E060E040E00E946E0E80E061E040E0BC
:103570000E946E0E80E062E040E00E946E0E80E0ED
:1035800063E041E00E946E0E80E090E0A0E2B1E4D2
:103590008B879C87AD87BE876B857C858D859E8557
:1035A00020E030E04AEF54E40E941F02DC01CB012E
:1035B0008F839887A987BA876F81788589859A854F
:1035C00020E030E040E85FE30E94790388232CF498
:1035D00081E090E09E838D833FC06F8178858985EF
:1035E0009A8520E03FEF4FE757E40E941903181631
:1035F0004CF56B857C858D859E8520E030E040E232
:1036000051E40E941F02DC01CB01BC01CD010E94EC
:103610004900DC01CB019E838D830FC088EC90E0D4
:103620009C838B838B819C810197F1F79C838B8397
:103630008D819E8101979E838D838D819E810097D0
:1036400069F714C06F81788589859A850E94490041
:10365000DC01CB019E838D838D819E819A8389833A
:1036600089819A810197F1F79A83898380E060E0EC
:1036700041E00E946E0E80E061E040E00E946E0E2C
:1036800080E062E040E00E946E0E80E063E041E096
:103690000E946E0EDE01AD59BF4FFE01ED59FF4F86
:1036A00080819181019611969C938E938091E30184
:1036B0009091E4019C01369527953695279536958E
:1036C0002795FE01ED59FF4F808191812817390719
:1036D00008F08DCBCA59DF4F0FB6F894DEBF0FBE8E
:1036E000CDBFCF91DF911F910F910895DF93CF93BD
:1036F000CDB7DEB780E060E00E945C11CF91DF9132
:103700000895DF93CF93CDB7DEB780E060E040E06F
:103710000E94700D0E946713CF91DF910895DF938F
:10372000CF9300D000D0CDB7DEB71C821B821A82A7
:10373000198280E00E94AB138C838C81282F30E0AB
:103740008091A901882F90E0AC01249FC001259FA2
:10375000900D349F900D11249B838A838A819B81D5
:103760002AE030E0B9010E94922DCB018983898142
:103770000F900F900F900F90CF91DF910895DF93EE
:10378000CF9300D000D00F92CDB7DEB79D838C834E
:103790001B821A821982EC81FD818081282F30E002
:1037A0008091A901882F90E0AC01249FC001259F42
:1037B000900D349F900D11249A83898389819A8179
:1037C0002AE030E0B9010E94922DCB018093AA013A
:1037D0000F900F900F900F900F90CF91DF91089561
:1037E000DF93CF93CDB7DEB72FEB3BE180E0B9019C
:1037F0000E9429148091AA01CF91DF910895DF934F
:10380000CF93CDB7DEB72F970FB6F894DEBF0FBEBC
:10381000CDBF8F8783E066E040E00E946E0E83E0BC
:1038200063E040E00E946E0E81E06F850E94A0116F
:1038300083E064E040E00E946E0E83E064E041E0DB
:103840000E946E0E80E090E0A0E0B0E48B879C8741
:10385000AD87BE876B857C858D859E8520E030E0B9
:103860004AEF54E40E941F02DC01CB018F8398874A
:10387000A987BA876F81788589859A8520E030E0AD
:1038800040E85FE30E94790388232CF481E090E014
:103890009E838D833FC06F81788589859A8520E0DE
:1038A0003FEF4FE757E40E94190318164CF56B855C
:1038B0007C858D859E8520E030E040E251E40E94C9
:1038C0001F02DC01CB01BC01CD010E944900DC01DB
:1038D000CB019E838D830FC088EC90E09C838B830B
:1038E0008B819C810197F1F79C838B838D819E81D5
:1038F00001979E838D838D819E81009769F714C007
:103900006F81788589859A850E944900DC01CB0109
:103910009E838D838D819E819A83898389819A81FB
:103920000197F1F79A83898383E064E040E00E9485
:103930006E0E2F960FB6F894DEBF0FBECDBFCF919F
:10394000DF910895DF93CF93CDB7DEB72F970FB6F2
:10395000F894DEBF0FBECDBF8F8783E063E041E008
:103960000E946E0E83E066E040E00E946E0E81E0F1
:103970006F850E94A01183E064E040E00E946E0E1B
:1039800083E064E041E00E946E0E80E090E0A0E001
:10399000B0E48B879C87AD87BE876B857C858D85E2
:1039A0009E8520E030E04AEF54E40E941F02DC01D3
:1039B000CB018F839887A987BA876F81788589859E
:1039C0009A8520E030E040E85FE30E947903882395
:1039D0002CF481E090E09E838D833FC06F817885D9
:1039E00089859A8520E03FEF4FE757E40E9419034D
:1039F00018164CF56B857C858D859E8520E030E022
:103A000040E251E40E941F02DC01CB01BC01CD0168
:103A10000E944900DC01CB019E838D830FC088EC9E
:103A200090E09C838B838B819C810197F1F79C8331
:103A30008B838D819E8101979E838D838D819E8155
:103A4000009769F714C06F81788589859A850E94EF
:103A50004900DC01CB019E838D838D819E819A83F9
:103A6000898389819A810197F1F79A83898383E019
:103A700064E040E00E946E0E2F960FB6F894DEBF11
:103A80000FBECDBFCF91DF910895DF93CF93CDB718
:103A9000DEB72D970FB6F894DEBF0FBECDBF9D8762
:103AA0008C878C859D85009719F480E30E94A21C69
:103AB00019821FC08981E82FFF27E7FDF0958C85CB
:103AC0009D852AE030E0B9010E94922D282FCE0179
:103AD0000296E80FF91F20838C859D852AE030E04F
:103AE000B9010E94922DCB019D878C8789818F5FC0
:103AF00089838C859D850097E9F68981815089832A
:103B000011C08981282F332727FD3095CE010296D9
:103B1000FC01E20FF31F8081805D0E94A21C89815D
:103B2000815089838981882364F72D960FB6F89494
:103B3000DEBF0FBECDBFCF91DF910895DF93CF934E
:103B400000D00F92CDB7DEB78A836B8319828A814A
:103B5000882319F48B81898306C08A81813019F406
:103B60008B81805C898389818068898389810E94B7
:103B7000FF1B0F900F900F90CF91DF910895DF936F
:103B8000CF9300D00F92CDB7DEB79B838A83198283
:103B90000EC08981282F30E08A819B81FC01E20FD1
:103BA000F31F80810E94A21C89818F5F8983898194
:103BB000282F30E08A819B81FC01E20FF31F808176
:103BC000882339F70F900F900F90CF91DF910895D0
:103BD000DF93CF93CDB7DEB727970FB6F894DEBF4C
:103BE0000FBECDBF9C838B836D834E832F831A8240
:103BF0008D81882F90E0880F991F880F991F880F5B
:103C0000991F898389818064898389810E94FF1B30
:103C10001A820EC08A81282F30E08B819C81FC01A2
:103C2000E20FF31F80810E94A21C8A818F5F8A832A
:103C30008A81883078F38E816F810E949E1D8D81EC
:103C40000E94A21C27960FB6F894DEBF0FBECDBF10
:103C5000CF91DF910895DF93CF93CDB7DEB72E9745
:103C60000FB6F894DEBF0FBECDBF80E090E0A0E2BB
:103C7000B2E48B879C87AD87BE876B857C858D85FD
:103C80009E8520E030E04AEF54E40E941F02DC01F0
:103C9000CB018F839887A987BA876F8178858985BB
:103CA0009A8520E030E040E85FE30E9479038823B2
:103CB0002CF481E090E09E838D833FC06F817885F6
:103CC00089859A8520E03FEF4FE757E40E9419036A
:103CD00018164CF56B857C858D859E8520E030E03F
:103CE00040E251E40E941F02DC01CB01BC01CD0186
:103CF0000E944900DC01CB019E838D830FC088ECBC
:103D000090E09C838B838B819C810197F1F79C834E
:103D10008B838D819E8101979E838D838D819E8172
:103D2000009769F714C06F81788589859A850E940C
:103D30004900DC01CB019E838D838D819E819A8316
:103D4000898389819A810197F1F79A83898388E32E
:103D50000E94FF1B8CE00E94FF1B81E00E94FF1B62
:103D60002E960FB6F894DEBF0FBECDBFCF91DF9178
:103D70000895DF93CF93CDB7DEB781E00E94FF1B9C
:103D8000CF91DF910895DF93CF93CDB7DEB781E078
:103D900061E00E94E41183E068E50E945C11CF912C
:103DA000DF910895DF93CF930F92CDB7DEB71982DD
:103DB000198233C08981882F90E0FC01E555FE4FC0
:103DC000908182E0692F40E00E94700D8981882FE8
:103DD00090E0FC01E555FE4F908182E0692F41E0C3
:103DE0000E946C0F8981882F90E0FC01E155FE4F05
:103DF000908182E0692F41E00E94700D8981882FB7
:103E000090E0FC01E155FE4F908182E0692F41E096
:103E10000E946E0E89818F5F89838981843050F280
:103E20000F90CF91DF910895DF93CF9300D000D012
:103E30000F92CDB7DEB78FEF89830E94871F1B8259
:103E400057C08B81882F90E0FC01E155FE4F908197
:103E500082E0692F40E00E946E0E1C8237C08C8188
:103E6000882F90E0FC01E555FE4F908182E0692F9C
:103E70000E94DA108A838A81882329F58C81482F51
:103E800050E08B81282F30E0CA01880F991F880FDE
:103E9000991F820F931FFC01ED54FE4F808189838F
:103EA0000CC08C81882F90E0FC01E555FE4F90817D
:103EB00082E0692F0E94DA108A838A81882389F33D
:103EC00089818D831BC08C818F5F8C838C81843032
:103ED00030F28B81882F90E0FC01E155FE4F9081FC
:103EE00082E0692F41E00E946E0E8B818F5F8B8391
:103EF0008B81843008F4A5CF89818D838D810F90CB
:103F00000F900F900F900F90CF91DF910895DF9356
:103F1000CF930F92CDB7DEB7198219820FC0898176
:103F2000882F90E0FC01E155FE4F908182E0692FDF
:103F300041E00E946E0E89818F5F89838981843080
:103F400070F30F90CF91DF910895DF93CF93CDB7AA
:103F5000DEB76C970FB6F894DEBF0FBECDBF0E94E0
:103F6000A3050E94D21E0E94C31E0E942B1E0E9407
:103F700067130E94811B0E94400B0E94240B80E06B
:103F800060E00E94680C83E060E040E00E94700DF9
:103F900083E061E041E00E94700D80E061E040E07C
:103FA0000E94700D83E062E040E00E94700D80E0AE
:103FB00063E00E949E1D80E690E00E94BF1D80E0AD
:103FC00090E0A8E4B3E4898F9A8FAB8FBC8F698DA2
:103FD0007A8D8B8D9C8D20E030E04AEF54E40E9476
:103FE0001F02DC01CB018D8B9E8BAF8BB88F6D894F
:103FF0007E898F89988D20E030E040E85FE30E9461
:10400000790388232CF481E090E09C8B8B8B3FC05C
:104010006D897E898F89988D20E03FEF4FE757E4C7
:104020000E94190318164CF5698D7A8D8B8D9C8D25
:1040300020E030E040E251E40E941F02DC01CB01AD
:10404000BC01CD010E944900DC01CB019C8B8B8B14
:104050000FC088EC90E09A8B898B89899A890197A7
:10406000F1F79A8B898B8B899C8901979C8B8B8B21
:104070008B899C89009769F714C06D897E898F8927
:10408000988D0E944900DC01CB019C8B8B8B8B8926
:104090009C89988B8F878F8598890197F1F7988BEA
:1040A0008F870E94B91E0E94B91E80E063E00E94C3
:1040B0009E1D8BE690E00E94BF1D80E090E0A8E48A
:1040C000B3E48B879C87AD87BE876B857C858D85A8
:1040D0009E8520E030E04AEF54E40E941F02DC019C
:1040E000CB018F839887A987BA876F817885898567
:1040F0009A8520E030E040E85FE30E94790388235E
:104100002CF481E090E09E838D833FC06F817885A1
:1041100089859A8520E03FEF4FE757E40E94190315
:1041200018164CF56B857C858D859E8520E030E0EA
:1041300040E251E40E941F02DC01CB01BC01CD0131
:104140000E944900DC01CB019E838D830FC088EC67
:1041500090E09C838B838B819C810197F1F79C83FA
:104160008B838D819E8101979E838D838D819E811E
:10417000009769F714C06F81788589859A850E94B8
:104180004900DC01CB019E838D838D819E819A83C2
:10419000898389819A810197F1F79A8389830E94A3
:1041A000B91E80E060E00E949E1D88E790E00E94BA
:1041B000BF1D81E060E00E949E1D83E890E00E94A8
:1041C000BF1D0E94202C8EE491E20E942B0D0E94C4
:1041D000141F8093EF018091EF018F3FC1F3809115
:1041E000EF01813019F50E94202C0E94B91E8DE844
:1041F00090E00E94BF1D0E94141F8093ED018091EA
:10420000ED018F3FC1F38091ED018F34A9F50E943C
:10421000B91E80E060E00E949E1D88E990E00E9447
:10422000BF1D81E060E00E949E1D26C08091EF01CD
:10423000823011F50E94202C0E94B91E87EA90E07E
:104240000E94BF1D0E94141F8093ED018091ED011B
:104250008F3FC1F38091ED018F3471F40E94B91E3C
:1042600080E060E00E949E1D88E990E00E94BF1DF2
:1042700081E060E00E949E1D8EE491E20E942B0D81
:104280008091EF01813019F40E942A26F5CF8091A8
:10429000EF01823089F70E94D827EECFDF93CF93CA
:1042A000CDB7DEB72F970FB6F894DEBF0FBECDBFE8
:1042B0001F860E94B91E8FE48093F6018091F6015B
:1042C000882F90E00E94FD0583E062E00E94DA10F2
:1042D0008F878F85882F90E00E94FD0581EB90E00D
:1042E0000E94BF1D80E090E0AAEFB3E48B879C871B
:1042F000AD87BE876B857C858D859E8520E030E00F
:104300004AEF54E40E941F02DC01CB018F8398879F
:10431000A987BA876F81788589859A8520E030E002
:1043200040E85FE30E94790388232CF481E090E069
:104330009E838D833FC06F81788589859A8520E033
:104340003FEF4FE757E40E94190318164CF56B85B1
:104350007C858D859E8520E030E040E251E40E941E
:104360001F02DC01CB01BC01CD010E944900DC0130
:10437000CB019E838D830FC088EC90E09C838B8360
:104380008B819C810197F1F79C838B838D819E812A
:1043900001979E838D838D819E81009769F714C05C
:1043A0006F81788589859A850E944900DC01CB015F
:1043B0009E838D838D819E819A83898389819A8151
:1043C0000197F1F79A8389830E94B91E80E060E02B
:1043D0000E949E1D8EEB90E00E94BF1D81E060E078
:1043E0000E949E1D88EC90E00E94BF1D2F960FB684
:1043F000F894DEBF0FBECDBFCF91DF910895DF935C
:10440000CF93CDB7DEB72E970FB6F894DEBF0FBEB1
:10441000CDBF0E94B91E80E060E00E949E1D83ED2A
:1044200090E00E94BF1D81E064E00E949E1D8EED21
:1044300090E00E94BF1D80E090E0AAEFB3E48B877C
:104440009C87AD87BE876B857C858D859E8520E0AA
:1044500030E04AEF54E40E941F02DC01CB018F835D
:104460009887A987BA876F81788589859A8520E0A2
:1044700030E040E85FE30E94790388232CF481E078
:1044800090E09E838D833FC06F81788589859A8572
:1044900020E03FEF4FE757E40E94190318164CF550
:1044A0006B857C858D859E8520E030E040E251E47F
:1044B0000E941F02DC01CB01BC01CD010E9449001A
:1044C000DC01CB019E838D830FC088EC90E09C8340
:1044D0008B838B819C810197F1F79C838B838D81EA
:1044E0009E8101979E838D838D819E81009769F7C0
:1044F00014C06F81788589859A850E944900DC0106
:10450000CB019E838D838D819E819A83898389814E
:104510009A810197F1F79A8389830E94B91E1092BC
:10452000EB011092EA018091F1018F5F8093F1011C
:104530008091F101823071F00E94B91E80E060E04C
:104540000E949E1D88E990E00E94BF1D81E060E00E
:104550000E949E1D2E960FB6F894DEBF0FBECDBFF3
:10456000CF91DF9108950F931F93DF93CF93CDB732
:10457000DEB7ED970FB6F894DEBF0FBECDBF1DAE10
:104580001CAE1BAE1AAE19AE80E060E00E949E1D0C
:1045900088EE90E00E94BF1D81E060E00E949E1DB9
:1045A00081EF90E00E94BF1D80E069E00E949E1DA7
:1045B0008CEF90E00E94BF1D0E94141F8CAF8CAD49
:1045C0008F3FD1F3ECC00E94B91E84E58093F601C1
:1045D0008091F601882F90E00E94FD050E948F1BBC
:1045E0008093E50180E060E00E949E1D84E091E000
:1045F0000E94BF1D80E065E00E949E1D8091E50144
:10460000882F90E00E94451D8091E501882F90E061
:104610000E94FD058091E501893150F484E1809389
:10462000F5018091F501882F90E00E94FD0531C0D1
:104630008091E501893170F08091E5018E3150F46F
:1046400086E48093F5018091F501882F90E00E9427
:10465000FD051FC08091E5018E3170F08091E5016C
:10466000833250F486E98093F5018091F501882F1B
:1046700090E00E94FD050DC08091E501833248F075
:104680008FEF8093F5018091F501882F90E00E94D3
:10469000FD0581E060E00E949E1D8BE091E00E949C
:1046A000BF1D80E090E0A8ECB2E48DAB9EABAFAB59
:1046B000B8AF6DA97EA98FA998AD20E030E04AEF90
:1046C00054E40E941F02DC01CB0189AB9AABABAB77
:1046D000BCAB69A97AA98BA99CA920E030E040E88D
:1046E0005FE30E94790388232CF481E090E098AB8B
:1046F0008FA73FC069A97AA98BA99CA920E03FEFA9
:104700004FE757E40E94190318164CF56DA97EA9CE
:104710008FA998AD20E030E040E251E40E941F02F2
:10472000DC01CB01BC01CD010E944900DC01CB01C1
:1047300098AB8FA70FC088EC90E09EA78DA78DA5A2
:104740009EA50197F1F79EA78DA78FA598A9019720
:1047500098AB8FA78FA598A9009769F714C069A98E
:104760007AA98BA99CA90E944900DC01CB0198ABD6
:104770008FA78FA598A99CA78BA78BA59CA5019710
:10478000F1F79CA78BA70E94141F8BAF8BAD8F3FB7
:10479000D1F38BAD8F3419F40E94B91E8BC18CAD4F
:1047A000813009F410CF86C10E94B91E86E480933F
:1047B000F6018091F601882F90E00E94FD0580E0CF
:1047C00060E00E949E1D87E191E00E94BF1D80E095
:1047D00069E00E949E1D80E291E00E94BF1D81E081
:1047E00060E00E949E1D88E291E00E94BF1D0E9431
:1047F000141F8093F4018091F4018F3FC1F38091E5
:10480000F4018130A1F40E94B91E80E060E00E94B2
:104810009E1D80E391E00E94BF1D8FEF8093F50104
:104820008091F501882F90E00E94FD05A2C0809143
:10483000F4018230A1F40E94B91E80E060E00E9481
:104840009E1D8BE391E00E94BF1D86E98093F501D8
:104850008091F501882F90E00E94FD058AC080912B
:10486000F401833009F085C00E94B91E80E060E049
:104870000E949E1D85E491E00E94BF1D86E4809306
:10488000F50180E090E0A8ECB2E48FA398A7A9A777
:10489000BAA76FA178A589A59AA520E030E04AEFD4
:1048A00054E40E941F02DC01CB018BA39CA3ADA3A7
:1048B000BEA36BA17CA18DA19EA120E030E040E8C9
:1048C0005FE30E94790388232CF481E090E09AA3AF
:1048D00089A33FC06BA17CA18DA19EA120E03FEFE9
:1048E0004FE757E40E94190318164CF56FA178A5FD
:1048F00089A59AA520E030E040E251E40E941F0221
:10490000DC01CB01BC01CD010E944900DC01CB01DF
:104910009AA389A30FC088EC90E098A38F8F8F8D06
:1049200098A10197F1F798A38F8F89A19AA1019778
:104930009AA389A389A19AA1009769F714C06BA1D2
:104940007CA18DA19EA10E944900DC01CB019AA30C
:1049500089A389A19AA19E8F8D8F8D8D9E8D0197A0
:10496000F1F79E8F8D8F8091F501882F90E00E9446
:10497000FD0580E090E0A8ECB2E4898F9A8FAB8FC0
:10498000BC8F698D7A8D8B8D9C8D20E030E04AEF55
:1049900054E40E941F02DC01CB018D8B9E8BAF8BF8
:1049A000B88F6D897E898F89988D20E030E040E84E
:1049B0005FE30E94790388232CF481E090E09C8BD4
:1049C0008B8B3FC06D897E898F89988D20E03FEF6A
:1049D0004FE757E40E94190318164CF5698D7A8D3C
:1049E0008B8D9C8D20E030E040E251E40E941F025C
:1049F000DC01CB01BC01CD010E944900DC01CB01EF
:104A00009C8B8B8B0FC088EC90E09A8B898B89896B
:104A10009A890197F1F79A8B898B8B899C890197E9
:104A20009C8B8B8B8B899C89009769F714C06D894F
:104A30007E898F89988D0E944900DC01CB019C8B77
:104A40008B8B8B899C89988B8F878F859889019711
:104A5000F1F7988B8F870E94141F8BAF8BAD8F3F20
:104A6000D1F38BAD8F3431F50E94B91E80E060E048
:104A70000E949E1D87E191E00E94BF1D80E069E0D9
:104A80000E949E1D80E291E00E94BF1D81E060E0D7
:104A90000E949E1D88E291E00E94BF1D0E94141F8B
:104AA0008BAF8BAD8F3FD1F38BAD8F3419F40E9458
:104AB000B91EC1C08CAD823009F476CEBCC00E9454
:104AC000B91E8CE48093F6018091F601882F90E066
:104AD0000E94FD0581E00E94AB138AAF8AADE82FEA
:104AE000F0E08FEF90E060E070E043EF50E022E014
:104AF00030E08F010E94E0138DAF80E060E00E9403
:104B00009E1D8FE491E00E94BF1D80E067E00E943F
:104B10009E1D8DAD882F90E002960E94451D8DADA3
:104B2000882F90E002960E94FD0581E060E00E94DF
:104B30009E1D87E591E00E94BF1D80E090E0A8ECFB
:104B4000B2E48B879C87AD87BE876B857C858D851E
:104B50009E8520E030E04AEF54E40E941F02DC0111
:104B6000CB018F839887A987BA876F8178858985DC
:104B70009A8520E030E040E85FE30E9479038823D3
:104B80002CF481E090E09E838D833FC06F81788517
:104B900089859A8520E03FEF4FE757E40E9419038B
:104BA00018164CF56B857C858D859E8520E030E060
:104BB00040E251E40E941F02DC01CB01BC01CD01A7
:104BC0000E944900DC01CB019E838D830FC088ECDD
:104BD00090E09C838B838B819C810197F1F79C8370
:104BE0008B838D819E8101979E838D838D819E8194
:104BF000009769F714C06F81788589859A850E942E
:104C00004900DC01CB019E838D838D819E819A8337
:104C1000898389819A810197F1F79A8389830E9418
:104C2000141F8BAF8BAD8F3FD1F38BAD8F3419F445
:104C30000E94B91E04C08CAD833009F440CFED96BC
:104C40000FB6F894DEBF0FBECDBFCF91DF911F919D
:104C50000F910895DF93CF93CDB7DEB76C970FB662
:104C6000F894DEBF0FBECDBFE7C00E94202C0E948B
:104C7000141F8093ED018091ED018F3FC1F380916E
:104C8000ED01833499F08AE20E94A21C8091EB012D
:104C9000882F90E02091ED01FC01EA51FE4F208326
:104CA0008091EB018F5F8093EB01C6C08091ED0195
:104CB000833409F0C1C09091EB018091CD01981728
:104CC00009F0B8C01092EC011CC08091EC01882F53
:104CD00090E0FC01EA51FE4F20818091EC01882F89
:104CE00090E0FC01E853FE4F8081281729F4809161
:104CF000EA018F5F8093EA018091EC018F5F8093DE
:104D0000EC019091EC018091CD019817F0F2909117
:104D1000EA018091CD01981709F089C00E94B91E5F
:104D200080E060E00E949E1D83E691E00E94BF1D2E
:104D300080E090E0AAEFB3E4898F9A8FAB8FBC8FAD
:104D4000698D7A8D8B8D9C8D20E030E04AEF54E4A4
:104D50000E941F02DC01CB018D8B9E8BAF8BB88F25
:104D60006D897E898F89988D20E030E040E85FE38F
:104D70000E94790388232CF481E090E09C8B8B8B3C
:104D80003FC06D897E898F89988D20E03FEF4FE786
:104D900057E40E94190318164CF5698D7A8D8B8D96
:104DA0009C8D20E030E040E251E40E941F02DC01D3
:104DB000CB01BC01CD010E944900DC01CB019C8BE1
:104DC0008B8B0FC088EC90E09A8B898B89899A89AC
:104DD0000197F1F79A8B898B8B899C8901979C8B22
:104DE0008B8B8B899C89009769F714C06D897E89AC
:104DF0008F89988D0E944900DC01CB019C8B8B8BA5
:104E00008B899C89988B8F878F8598890197F1F77B
:104E1000988B8F870E94B91E81E08093F00102C0B9
:104E20000E94B3228091F0018130D1F305C00E942D
:104E3000FF2102C00E94FF218091F101823008F41D
:104E400014CF9AC00E94B91E80E060E00E949E1DAF
:104E500080E791E00E94BF1D81E060E00E949E1DFE
:104E60008091CE01882F90E00E94451D80E090E067
:104E7000A8ECB2E48B879C87AD87BE876B857C8569
:104E80008D859E8520E030E04AEF54E40E941F02A9
:104E9000DC01CB018F839887A987BA876F817885DA
:104EA00089859A8520E030E040E85FE30E9479033D
:104EB00088232CF481E090E09E838D833FC06F8136
:104EC000788589859A8520E03FEF4FE757E40E9477
:104ED000190318164CF56B857C858D859E8520E021
:104EE00030E040E251E40E941F02DC01CB01BC0132
:104EF000CD010E944900DC01CB019E838D830FC050
:104F000088EC90E09C838B838B819C810197F1F7E7
:104F10009C838B838D819E8101979E838D838D8160
:104F20009E81009769F714C06F81788589859A857D
:104F30000E944900DC01CB019E838D838D819E817F
:104F40009A83898389819A810197F1F79A8389836A
:104F50008091CE0181508093CE018091CE01882333
:104F600059F41092F1018AE08093CE018091CE0134
:104F7000865F8093CE0105C08091F001882309F4FB
:104F800061CF0E94B91E80E060E00E949E1D88E90A
:104F900090E00E94BF1D81E060E00E949E1D6C9623
:104FA0000FB6F894DEBF0FBECDBFCF91DF9108954D
:104FB000DF93CF93CDB7DEB76C970FB6F894DEBF13
:104FC0000FBECDBFE7C00E94202C0E94141F80930B
:104FD000ED018091ED018F3FC1F38091ED018334AC
:104FE00099F08AE20E94A21C8091EB01882F90E048
:104FF0002091ED01FC01EA51FE4F20838091EB01ED
:105000008F5F8093EB01C6C08091ED01833409F07E
:10501000C1C09091EB018091CD01981709F0B8C003
:105020001092EC011CC08091EC01882F90E0FC01F3
:10503000EA51FE4F20818091EC01882F90E0FC0125
:10504000ED53FE4F8081281729F48091EA018F5F8C
:105050008093EA018091EC018F5F8093EC01909145
:10506000EC018091CD019817F0F29091EA018091C6
:10507000CD01981709F089C00E94B91E80E060E058
:105080000E949E1D83E691E00E94BF1D80E090E09B
:10509000AAEFB3E4898F9A8FAB8FBC8F698D7A8D1D
:1050A0008B8D9C8D20E030E04AEF54E40E941F027B
:1050B000DC01CB018D8B9E8BAF8BB88F6D897E8988
:1050C0008F89988D20E030E040E85FE30E9479030B
:1050D00088232CF481E090E09C8B8B8B3FC06D8902
:1050E0007E898F89988D20E03FEF4FE757E40E943B
:1050F000190318164CF5698D7A8D8B8D9C8D20E0E7
:1051000030E040E251E40E941F02DC01CB01BC010F
:10511000CD010E944900DC01CB019C8B8B8B0FC021
:1051200088EC90E09A8B898B89899A890197F1F7AD
:105130009A8B898B8B899C8901979C8B8B8B8B8914
:105140009C89009769F714C06D897E898F89988D35
:105150000E944900DC01CB019C8B8B8B8B899C8945
:10516000988B8F878F8598890197F1F7988B8F8718
:105170000E94B91E81E08093F00102C00E9486293E
:105180008091F0018130D1F305C00E94FF2102C05F
:105190000E94FF218091F101823008F414CF9AC05F
:1051A0000E94B91E80E060E00E949E1D80E791E0B1
:1051B0000E94BF1D81E060E00E949E1D8091CE0193
:1051C000882F90E00E94451D80E090E0A8ECB2E4BA
:1051D0008B879C87AD87BE876B857C858D859E85FB
:1051E00020E030E04AEF54E40E941F02DC01CB01D2
:1051F0008F839887A987BA876F81788589859A85F3
:1052000020E030E040E85FE30E94790388232CF43B
:1052100081E090E09E838D833FC06F817885898592
:105220009A8520E03FEF4FE757E40E9419031816D4
:105230004CF56B857C858D859E8520E030E040E2D5
:1052400051E40E941F02DC01CB01BC01CD010E9490
:105250004900DC01CB019E838D830FC088EC90E078
:105260009C838B838B819C810197F1F79C838B833B
:105270008D819E8101979E838D838D819E81009774
:1052800069F714C06F81788589859A850E944900E5
:10529000DC01CB019E838D838D819E819A838983DE
:1052A00089819A810197F1F79A8389838091CE0150
:1052B00081508093CE018091CE01882359F41092C1
:1052C000F1018AE08093CE018091CE01865F8093C8
:1052D000CE0105C08091F001882309F461CF0E94BE
:1052E000B91E80E060E00E949E1D88E990E00E9467
:1052F000BF1D81E060E00E949E1D6C960FB6F89481
:10530000DEBF0FBECDBFCF91DF9108950F931F93E6
:10531000DF93CF93CDB7DEB7AE970FB6F894DEBF6D
:105320000FBECDBF1EA61DA61CA61BA681E060E079
:105330000E949E1D89E791E00E94BF1D80E069E008
:105340000E949E1D83E891E00E94BF1D8EE491E2C1
:105350000E942B0D80E060E00E949E1D84E590E09D
:105360000E94FD058091E501882F90E00E94FD05D7
:105370008EE18093E50184E091E00E94BF1D809161
:10538000F501882F90E00E94FD0580E065E00E9415
:105390009E1D8091E501882F90E00E94451D0E948E
:1053A000141F8CA78CA58F3FD1F37AC10E94B91E20
:1053B00086E48093F6018091F601882F90E00E94A8
:1053C000FD0580E060E00E949E1D87E191E00E9463
:1053D000BF1D80E069E00E949E1D80E291E00E9476
:1053E000BF1D81E060E00E949E1D88E291E00E9466
:1053F000BF1D0E94141F8093F4018091F4018F3F20
:10540000C1F38091F4018130A1F40E94B91E80E0C3
:1054100060E00E949E1D80E391E00E94BF1D8FEF1F
:105420008093F5018091F501882F90E00E94FD05A1
:10543000A2C08091F4018230A1F40E94B91E80E0E4
:1054400060E00E949E1D8BE391E00E94BF1D86E9F3
:105450008093F5018091F501882F90E00E94FD0571
:105460008AC08091F401833009F085C00E94B91E82
:1054700080E060E00E949E1D85E491E00E94BF1DD7
:1054800086E48093F50180E090E0A8ECB2E48FA37D
:1054900098A7A9A7BAA76FA178A589A59AA520E082
:1054A00030E04AEF54E40E941F02DC01CB018BA3E1
:1054B0009CA3ADA3BEA36BA17CA18DA19EA120E066
:1054C00030E040E85FE30E94790388232CF481E018
:1054D00090E09AA389A33FC06BA17CA18DA19EA15E
:1054E00020E03FEF4FE757E40E94190318164CF5F0
:1054F0006FA178A589A59AA520E030E040E251E4AB
:105500000E941F02DC01CB01BC01CD010E944900B9
:10551000DC01CB019AA389A30FC088EC90E098A38B
:105520008F8F8F8D98A10197F1F798A38F8F89A105
:105530009AA101979AA389A389A19AA1009769F7D3
:1055400014C06BA17CA18DA19EA10E944900DC0129
:10555000CB019AA389A389A19AA19E8F8D8F8D8D4E
:105560009E8D0197F1F79E8F8D8F8091F501882F89
:1055700090E00E94FD0580E090E0A8ECB2E4898F05
:105580009A8FAB8FBC8F698D7A8D8B8D9C8D20E02F
:1055900030E04AEF54E40E941F02DC01CB018D8B06
:1055A0009E8BAF8BB88F6D897E898F89988D20E017
:1055B00030E040E85FE30E94790388232CF481E027
:1055C00090E09C8B8B8B3FC06D897E898F89988DF5
:1055D00020E03FEF4FE757E40E94190318164CF5FF
:1055E000698D7A8D8B8D9C8D20E030E040E251E416
:1055F0000E941F02DC01CB01BC01CD010E944900C9
:10560000DC01CB019C8B8B8B0FC088EC90E09A8BDC
:10561000898B89899A890197F1F79A8B898B8B8974
:105620009C8901979C8B8B8B8B899C89009769F750
:1056300014C06D897E898F89988D0E944900DC0194
:10564000CB019C8B8B8B8B899C89988B8F878F85CB
:1056500098890197F1F7988B8F870E94141F8CA768
:105660008CA58F3FD1F38CA58F34D1F40E94B91E45
:1056700080E060E00E949E1D87E191E00E94BF1DD6
:1056800080E069E00E949E1D80E291E00E94BF1DC3
:1056900081E060E00E949E1D88E291E00E94BF1DB3
:1056A0008CA5813009F482CEBCC00E94B91E8CE466
:1056B0008093F6018091F601882F90E00E94FD050D
:1056C00081E00E94AB138BA78BA5E82FF0E08FEF52
:1056D00090E060E070E043EF50E022E030E08F01C6
:1056E0000E94E0138EA780E060E00E949E1D8FE480
:1056F00091E00E94BF1D80E067E00E949E1D8EA584
:10570000882F90E002960E94451D8EA5882F90E07C
:1057100002960E94FD0581E060E00E949E1D8BE8DC
:1057200091E00E94BF1D80E090E0A8ECB2E48B877E
:105730009C87AD87BE876B857C858D859E8520E0A7
:1057400030E04AEF54E40E941F02DC01CB018F835A
:105750009887A987BA876F81788589859A8520E09F
:1057600030E040E85FE30E94790388232CF481E075
:1057700090E09E838D833FC06F81788589859A856F
:1057800020E03FEF4FE757E40E94190318164CF54D
:105790006B857C858D859E8520E030E040E251E47C
:1057A0000E941F02DC01CB01BC01CD010E94490017
:1057B000DC01CB019E838D830FC088EC90E09C833D
:1057C0008B838B819C810197F1F79C838B838D81E7
:1057D0009E8101979E838D838D819E81009769F7BD
:1057E00014C06F81788589859A850E944900DC0103
:1057F000CB019E838D838D819E819A83898389814C
:105800009A810197F1F79A8389830E94141F8CA7CC
:105810008CA58F3FD1F38CA58F3419F40E94B91E4B
:1058200004C08CA5823009F440CFAE960FB6F89430
:10583000DEBF0FBECDBFCF91DF911F910F910895B5
:105840000F931F93DF93CF93CDB7DEB76C970FB64F
:10585000F894DEBF0FBECDBF84E58093F601809142
:10586000F601882F90E00E94FD050E948F1B809317
:10587000E5018091E501882F90E00E94FD0580916F
:10588000E501893150F484E18093F5018091F501BF
:10589000882F90E00E94FD0531C08091E50189319B
:1058A00070F08091E5018E3150F486E48093F5012B
:1058B0008091F501882F90E00E94FD051FC0809126
:1058C000E5018E3170F08091E501833250F486E974
:1058D0008093F5018091F501882F90E00E94FD05ED
:1058E0000DC08091E501833248F08FEF8093F50180
:1058F0008091F501882F90E00E94FD0580E090E006
:10590000A0E2B1E4898F9A8FAB8FBC8F698D7A8DBD
:105910008B8D9C8D20E030E04AEF54E40E941F0202
:10592000DC01CB018D8B9E8BAF8BB88F6D897E890F
:105930008F89988D20E030E040E85FE30E94790392
:1059400088232CF481E090E09C8B8B8B3FC06D8989
:105950007E898F89988D20E03FEF4FE757E40E94C2
:10596000190318164CF5698D7A8D8B8D9C8D20E06E
:1059700030E040E251E40E941F02DC01CB01BC0197
:10598000CD010E944900DC01CB019C8B8B8B0FC0A9
:1059900088EC90E09A8B898B89899A890197F1F735
:1059A0009A8B898B8B899C8901979C8B8B8B8B899C
:1059B0009C89009769F714C06D897E898F89988DBD
:1059C0000E944900DC01CB019C8B8B8B8B899C89CD
:1059D000988B8F878F8598890197F1F7988B8F87A0
:1059E0008CE48093F6018091F601882F90E00E946C
:1059F000FD0581E00E94AB138093F3018091F301D8
:105A0000E82FF0E08FEF90E060E070E043EF50E0CF
:105A100022E030E08F010E94E0138093F201809138
:105A2000F201882F90E00E94FD0580E090E0A0E266
:105A3000B1E48B879C87AD87BE876B857C858D8520
:105A40009E8520E030E04AEF54E40E941F02DC0112
:105A5000CB018F839887A987BA876F8178858985DD
:105A60009A8520E030E040E85FE30E9479038823D4
:105A70002CF481E090E09E838D833FC06F81788518
:105A800089859A8520E03FEF4FE757E40E9419038C
:105A900018164CF56B857C858D859E8520E030E061
:105AA00040E251E40E941F02DC01CB01BC01CD01A8
:105AB0000E944900DC01CB019E838D830FC088ECDE
:105AC00090E09C838B838B819C810197F1F79C8371
:105AD0008B838D819E8101979E838D838D819E8195
